{
  "contractName": "BlogContract",
  "abi": [
    {
      "anonymous": false,
      "inputs": [
        {
          "indexed": true,
          "internalType": "address",
          "name": "author",
          "type": "address"
        },
        {
          "indexed": true,
          "internalType": "uint256",
          "name": "postId",
          "type": "uint256"
        }
      ],
      "name": "AddPost",
      "type": "event"
    },
    {
      "anonymous": false,
      "inputs": [
        {
          "indexed": true,
          "internalType": "uint256",
          "name": "postId",
          "type": "uint256"
        },
        {
          "indexed": false,
          "internalType": "bool",
          "name": "deleted",
          "type": "bool"
        }
      ],
      "name": "DeletePost",
      "type": "event"
    },
    {
      "inputs": [
        {
          "internalType": "bytes32",
          "name": "content",
          "type": "bytes32"
        }
      ],
      "name": "addPost",
      "outputs": [],
      "stateMutability": "nonpayable",
      "type": "function"
    },
    {
      "inputs": [
        {
          "internalType": "uint256",
          "name": "postId",
          "type": "uint256"
        }
      ],
      "name": "deletePost",
      "outputs": [],
      "stateMutability": "nonpayable",
      "type": "function"
    },
    {
      "inputs": [],
      "name": "getPosts",
      "outputs": [
        {
          "components": [
            {
              "internalType": "uint256",
              "name": "postId",
              "type": "uint256"
            },
            {
              "internalType": "address",
              "name": "author",
              "type": "address"
            },
            {
              "internalType": "bytes32",
              "name": "content",
              "type": "bytes32"
            },
            {
              "internalType": "bool",
              "name": "deleted",
              "type": "bool"
            }
          ],
          "internalType": "struct BlogContract.Post[]",
          "name": "",
          "type": "tuple[]"
        }
      ],
      "stateMutability": "view",
      "type": "function"
    }
  ],
  "bytecode": "0x608060405234801561001057600080fd5b50610a69806100206000396000f3fe608060405234801561001057600080fd5b50600436106100415760003560e01c8063094cd5ee1461004657806341f3004a1461006257806388827c1614610080575b600080fd5b610060600480360381019061005b919061062d565b61009c565b005b61006a6101b7565b60405161007791906107e2565b60405180910390f35b61009a60048036038101906100959190610830565b61040a565b005b803373ffffffffffffffffffffffffffffffffffffffff1660008083815260200190815260200160002060009054906101000a900473ffffffffffffffffffffffffffffffffffffffff1673ffffffffffffffffffffffffffffffffffffffff161461013d576040517f08c379a0000000000000000000000000000000000000000000000000000000008152600401610134906108e0565b60405180910390fd5b600180838154811061015257610151610900565b5b906000526020600020906004020160030160006101000a81548160ff021916908315150217905550817f50de60758261258765d60f3764f52b012fb4289c1120010bf8b34f7a7976f81560016040516101ab919061093e565b60405180910390a25050565b6060600060018054905067ffffffffffffffff8111156101da576101d9610959565b5b60405190808252806020026020018201604052801561021357816020015b6102006105af565b8152602001906001900390816101f85790505b5090506000805b600180549050811015610350576001818154811061023b5761023a610900565b5b906000526020600020906004020160030160009054906101000a900460ff1661033d576001818154811061027257610271610900565b5b9060005260206000209060040201604051806080016040529081600082015481526020016001820160009054906101000a900473ffffffffffffffffffffffffffffffffffffffff1673ffffffffffffffffffffffffffffffffffffffff1673ffffffffffffffffffffffffffffffffffffffff168152602001600282015481526020016003820160009054906101000a900460ff16151515158152505083838151811061032357610322610900565b5b60200260200101819052508180610339906109b7565b9250505b8080610348906109b7565b91505061021a565b5060008167ffffffffffffffff81111561036d5761036c610959565b5b6040519080825280602002602001820160405280156103a657816020015b6103936105af565b81526020019060019003908161038b5790505b50905060005b82811015610400578381815181106103c7576103c6610900565b5b60200260200101518282815181106103e2576103e1610900565b5b602002602001018190525080806103f8906109b7565b9150506103ac565b5080935050505090565b60003390506001604051806080016040528060018054905081526020018373ffffffffffffffffffffffffffffffffffffffff1681526020018481526020016000151581525090806001815401808255809150506001900390600052602060002090600402016000909190919091506000820151816000015560208201518160010160006101000a81548173ffffffffffffffffffffffffffffffffffffffff021916908373ffffffffffffffffffffffffffffffffffffffff1602179055506040820151816002015560608201518160030160006101000a81548160ff0219169083151502179055505050806000806001808054905061050b91906109ff565b815260200190815260200160002060006101000a81548173ffffffffffffffffffffffffffffffffffffffff021916908373ffffffffffffffffffffffffffffffffffffffff1602179055506001808054905061056891906109ff565b8173ffffffffffffffffffffffffffffffffffffffff167f211310f5bdfd60139328b0e0b1235a8d92df3ccfc99b9b80da0d81cbac493aea60405160405180910390a35050565b604051806080016040528060008152602001600073ffffffffffffffffffffffffffffffffffffffff168152602001600080191681526020016000151581525090565b600080fd5b6000819050919050565b61060a816105f7565b811461061557600080fd5b50565b60008135905061062781610601565b92915050565b600060208284031215610643576106426105f2565b5b600061065184828501610618565b91505092915050565b600081519050919050565b600082825260208201905092915050565b6000819050602082019050919050565b61068f816105f7565b82525050565b600073ffffffffffffffffffffffffffffffffffffffff82169050919050565b60006106c082610695565b9050919050565b6106d0816106b5565b82525050565b6000819050919050565b6106e9816106d6565b82525050565b60008115159050919050565b610704816106ef565b82525050565b6080820160008201516107206000850182610686565b50602082015161073360208501826106c7565b50604082015161074660408501826106e0565b50606082015161075960608501826106fb565b50505050565b600061076b838361070a565b60808301905092915050565b6000602082019050919050565b600061078f8261065a565b6107998185610665565b93506107a483610676565b8060005b838110156107d55781516107bc888261075f565b97506107c783610777565b9250506001810190506107a8565b5085935050505092915050565b600060208201905081810360008301526107fc8184610784565b905092915050565b61080d816106d6565b811461081857600080fd5b50565b60008135905061082a81610804565b92915050565b600060208284031215610846576108456105f2565b5b60006108548482850161081b565b91505092915050565b600082825260208201905092915050565b7f596f7520617265206e6f7420746865206f776e6572206f66207468697320706f60008201527f7374000000000000000000000000000000000000000000000000000000000000602082015250565b60006108ca60228361085d565b91506108d58261086e565b604082019050919050565b600060208201905081810360008301526108f9816108bd565b9050919050565b7f4e487b7100000000000000000000000000000000000000000000000000000000600052603260045260246000fd5b610938816106ef565b82525050565b6000602082019050610953600083018461092f565b92915050565b7f4e487b7100000000000000000000000000000000000000000000000000000000600052604160045260246000fd5b7f4e487b7100000000000000000000000000000000000000000000000000000000600052601160045260246000fd5b60006109c2826105f7565b91507fffffffffffffffffffffffffffffffffffffffffffffffffffffffffffffffff82036109f4576109f3610988565b5b600182019050919050565b6000610a0a826105f7565b9150610a15836105f7565b9250828203905081811115610a2d57610a2c610988565b5b9291505056fea264697066735822122090927532c836b3051b91880bf815516cb0ff13f5242eba24fab773d0644d1ea864736f6c63430008130033",
  "immutableReferences": {},
  "source": "pragma solidity ^0.8.0;\n\n\ncontract BlogContract{\n    struct Post {\n        uint postId;\n        address author;\n        bytes32 content;\n        bool deleted;\n    }\n\n    mapping (uint=>address) blogAuthors;\n    Post[] private posts;\n    event AddPost(address indexed author, uint indexed postId);\n    event DeletePost(uint indexed postId, bool deleted);\n\n    modifier isAuthor(uint postId) {\n    require(blogAuthors[postId] == msg.sender, \"You are not the owner of this post\");\n    _;\n    }\n\n    function addPost(bytes32 content) external{\n        address author = msg.sender;\n        posts.push(Post(posts.length, author, content, false ));\n        blogAuthors[posts.length-1] = author;\n        emit AddPost(author, posts.length-1);\n    }\n\n    function deletePost(uint postId) external isAuthor(postId) {\n    posts[postId].deleted = true;\n    emit DeletePost(postId, true);\n    }\n\n    function getPosts() external view returns(Post[] memory){\n    Post[] memory temporary = new Post[](posts.length);\n    uint counter = 0;\n    for(uint i=0;i<posts.length;i++){\n    if(!posts[i].deleted){\n    temporary[counter] = posts[i];\n    counter++;\n    }\n    }\n    Post[] memory result = new Post[](counter);\n    for(uint i = 0;i<counter;i++){\n    result[i] = temporary[i];\n    }\n    return result;\n    }\n    }\n\n",
  "sourcePath": "/Users/mohitharshan/Desktop/thirdweb/contracts/BlogContract.sol",
  "compiler": {
    "name": "solc",
    "version": "0.8.19+commit.7dd6d404.Emscripten.clang"
  },
  "schemaVersion": "3.4.13",
  "updatedAt": "2023-05-07T07:30:47.323Z",
  "devdoc": {
    "kind": "dev",
    "methods": {},
    "version": 1
  },
  "userdoc": {
    "kind": "user",
    "methods": {},
    "version": 1
  }
}